:100000000C942A000C9434000C9434000C943400AA
:100010000C9434000C9434000C9434000C94340090
:100020000C9434000C9434000C9434000C94340080
:100030000C9434000C9434000C9434000C94340070
:100040000C9434000C9434000C9434000C94340060
:100050000C94340011241FBECFE5D4E0DEBFCDBF29
:100060000E946E000C94DB000C940000DF93CF9391
:10007000CDB7DEB7A1E3B0E0E1E3F0E080818E7FB1
:100080008C93A1E3B0E0E1E3F0E080818D7F8C937D
:10009000A1E3B0E0E1E3F0E080818B7F8C93A1E30A
:1000A000B0E0E1E3F0E0808180618C93A1E3B0E017
:1000B000E1E3F0E0808180628C93A1E3B0E0E1E3D2
:1000C000F0E0808180648C93A1E3B0E0E1E3F0E0B4
:1000D000808180688C93CF91DF910895DF93CF93D7
:1000E00000D0CDB7DEB785E090E09A8389830E9487
:1000F00036002AC0E0E3F0E080818695882F90E00A
:1001000081709070882301F1A2E3B0E0E2E3F0E0B7
:100110008081482F29813A8181E090E0022E02C03F
:10012000880F991F0A94E2F7842B8C93C9010196DA
:100130009A838983E0E3F0E080818695882F90E0C0
:10014000817090708823B1F789819A8188309105F8
:100150008CF22BC0E0E3F0E080818695882F90E060
:1001600081709070882309F1A2E3B0E0E2E3F0E04F
:100170008081482F29813A8181E090E0022E02C0DF
:10018000880F991F0A94E2F7809584238C93C90104
:1001900001979A838983E0E3F0E080818695882F38
:1001A00090E0817090708823B1F789819A818530C1
:0A01B000910584F6C9CFF894FFCF43
:00000001FF
